:020000040000FA
:08000000803102288731FD2F39
:100F7C008731CB278731C12F623051018D008F0112
:100F8C00910102309300920108008731D4278731F8
:100F9C008731DE2787318731C22708004F01960140
:100FAC009701980199019A019B019C019D010800F0
:100FBC0020304001980099019A011F309200F030C6
:100FCC009300FF309400FF307E01CE00F030C30060
:100FDC001730B800C401B901CF01BA01C501D00165
:100FEC003730BB00F030C600FF30D10008004001A4
:040FFC008731BE2F4C
:020000040001F9
:0A000E00EC3FFF3F9F3FFF3FFF3F25
:00000001FF
