:100000000C9450000C9470010C943E010C947001FF
:100010000C9470010C9470010C9470010C94EE001F
:100020000C9470010C9411010C9420010C942F017C
:100030000C9470010C9470010C9470010C9470017C
:100040000C9470010C9470010C9470010C9470016C
:100050000C9470010C9470010C9470010C9470015C
:100060000C9470010C9470010C9470010C9470014C
:100070000C9470010C9470010C9470010C9470013C
:100080000C9470010C9470010C9470010C9470012C
:100090000C9470010C9470010C9470010C9470011C
:1000A00011241FBECFEFCDBFDFE3DEBFE0EAF0E0FB
:1000B00040E017C0B591A59135912591059107FDB7
:1000C0000CC095918591EF01F92FE82F05900D92C5
:1000D000A217B307D9F7FE0104C01D92A217B307F8
:1000E000E1F7E03AF40731F70E9469010C947800D7
:0400F000F894FFCFB2
:1000F400029A0A98E2E1F4E08081877F808380811C
:100104008F7780838081887F8083019A0998E1E1D9
:10011400F4E08081877F808380818F7780838081F2
:10012400887F8083259A2D98E5E3F4E08081877F9A
:10013400808380818F7780838081887F8083009A09
:100144000898E0E1F4E08081877F808380818F7765
:1001540080838081887F8083E0EEF5E012821082C4
:0A016400148211821582138208959F
:10016E00E0E9F4E0808188608193E83984E0F80763
:10017E00C9F7E0EBF4E0808188608193E83B84E08E
:10018E00F807C9F7E0E1F4E0808188608193E831F7
:10019E0084E0F807C9F7E0E3F4E08081886081939A
:1001AE00E83384E0F807C9F7E0E5F4E08081886081
:1001BE008193E83584E0F807C9F7E0E7F4E0808141
:0E01CE0088608193E83784E0F807C9F7089548
:1001DC001F920F920FB60F9211248F9380E280938F
:1001EC00270481E080930B0A8F910F900FBE0F9024
:0401FC001F901895A3
:100200000E94B7000E947A000E9474010E9455016A
:100210000E9472010E944D010E946D010E945D01C9
:0202200008953F
:100222001F920F920FB60F9211248F9380E1809349
:0E0232000B0A8F910F900FBE0F901F90189522
:100240001F920F920FB60F9211248F9380E280932A
:0E0250000B0A8F910F900FBE0F901F90189504
:10025E001F920F920FB60F9211248F9380E480930A
:0E026E000B0A8F910F900FBE0F901F901895E6
:10027C001F920F920FB60F9211248F9381E08093EF
:0E028C008A008F910F900FBE0F901F90189553
:10029A0047E068ED81E690E00E94650180E00895FC
:1002AA0041E068ED80E890E00E94650180E00895F1
:1002BA00E0E0FAE081E0828787E0808380E00895C9
:0802CA00FC0164BF40830895AC
:0802D20078940E940001FFCFA7
:0602DA00789480E0089515
:0402E0000C9400007A
:0402E40080E0089519
:0402E80080E0089515
:02000004008278
:090000000000810000C0070000AF
:00000001FF
