:020000040000FA
:04000000FEEF7FF0A0
:10FF5400B0EC7FF0FFD70001AAEF7FF0C3EC7FF095
:10FF6400D5EC7FF0B7EC7FF01200700E3901D96F39
:10FF7400000EDB6F000EDD6F020EDF6F000EDE6F12
:10FF84001200000E3901C06F000EC16F000EC26F67
:10FF9400000EC36F000EC46F000EC56F000EC66F57
:10FFA400000EC76F1200800EBA6E000EBB6E000EFC
:10FFB400BC6E7F0EC26EC368C4683A016069506942
:10FFC4007F0E406F000E816F000E516F000E416F67
:10FFD400000E616F000E5A6F000E5B6F000E6A6FA9
:10FFE400000E6B6F000E426F000E526F000E626FB8
:0CFFF4004369536963691200ADEF7FF0B0
:020000040020DA
:10000000FF0FFF0FFF0FFF0FFF0FFF0FFF0FFF0F80
:020000040030CA
:0A000000FCFFF7FF9FFFFFFFFFFF6B
:00000001FF
