:100000000C9450000C9401010C94D5000C94010147
:100010000C9401010C9401010C9401010C94010158
:100020000C9401010C9401010C9401010C94010148
:100030000C9401010C9401010C9401010C94010138
:100040000C9401010C9401010C9401010C94010128
:100050000C9401010C9401010C9401010C94010118
:100060000C9401010C9401010C9401010C94010108
:100070000C9401010C9401010C9401010C940101F8
:100080000C9401010C9401010C9401010C940101E8
:100090000C9401010C9401010C9401010C940101D8
:1000A00011241FBECFEFCDBFDFE3DEBFE0EAF0E0FB
:1000B00040E017C0B591A59135912591059107FDB7
:1000C0000CC095918591EF01F92FE82F05900D92C5
:1000D000A217B307D9F7FE0104C01D92A217B307F8
:1000E000E1F7E03AF40731F70E94B1000C94780090
:0400F000F894FFCFB2
:1000F400E0E9F4E0808188608193E83984E0F807DE
:10010400C9F7E0EBF4E0808188608193E83B84E008
:10011400F807C9F7E0E1F4E0808188608193E83171
:1001240084E0F807C9F7E0E3F4E080818860819314
:10013400E83384E0F807C9F7E0E5F4E080818860FB
:100144008193E83584E0F807C9F7E0E7F4E08081BB
:0E01540088608193E83784E0F807C9F70895C2
:100162000E94C60080E280932004E0E2F4E090E284
:100172008481892784832FEF38E08DE3215030403A
:0A0182008040E1F700C00000F3CF59
:10018C000E947A000E94E4000E9405010E94ED008A
:0E019C000E9407010E94F5000E9403010895D1
:1001AA001F920F920FB60F9211248F9381E08093C2
:0E01BA008A008F910F900FBE0F901F90189526
:1001C800E0EEF5E012821082148211821582138209
:0201D800089588
:1001DA0040E068ED81E690E00E94FD0080E008952D
:1001EA0041E068ED80E890E00E94FD0080E008951B
:0801FA00FC0164BF408308957D
:040202000C94000058
:0402060080E00895F7
:04020A0080E00895F3
:04020E0080E00895EF
:02000004008278
:090000000000020000C00700002E
:00000001FF
