:100000000C9450000C94F4000C94D6000C94F40062
:100010000C94F4000C94F4000C94F4000C94F40090
:100020000C94F4000C94F4000C94F4000C94F40080
:100030000C94F4000C94F4000C94F4000C94F40070
:100040000C94F4000C94F4000C94F4000C94F40060
:100050000C94F4000C94F4000C94F4000C94F40050
:100060000C94F4000C94F4000C94F4000C94F40040
:100070000C94F4000C94F4000C94F4000C94F40030
:100080000C94F4000C94F4000C94F4000C94F40020
:100090000C94F4000C94F4000C94F4000C94F40010
:1000A00011241FBECFEFCDBFDFE3DEBFE0EAF0E0FB
:1000B00040E017C0B591A59135912591059107FDB7
:1000C0000CC095918591EF01F92FE82F05900D92C5
:1000D000A217B307D9F7FE0104C01D92A217B307F8
:1000E000E1F7E03AF40731F70E94F1000C94780050
:0400F000F894FFCFB2
:1000F400E0E9F4E0808188608193E83984E0F807DE
:10010400C9F7E0EBF4E0808188608193E83B84E008
:10011400F807C9F7E0E1F4E0808188608193E83171
:1001240084E0F807C9F7E0E3F4E080818860819314
:10013400E83384E0F807C9F7E0E5F4E080818860FB
:100144008193E83584E0F807C9F7E0E7F4E08081BB
:0E01540088608193E83784E0F807C9F70895C2
:10016200259A2D98E5E3F4E08081877F8083808162
:100172008F7780838081887F8083E0EEF5E0128232
:0C018200108214821182158213820895ED
:10018E000E947A000E94B1000E94F8000E94FA00BC
:0E019E000E94FC000E94E5000E94F6000895F9
:1001AC001F920F920FB60F9211248F9381E08093C0
:0E01BC008A008F910F900FBE0F901F90189524
:1001CA0041E068ED80E890E00E94ED0080E008954B
:0801DA00FC0164BF408308959D
:0601E2000E94C700FFCFE0
:0401E8000C94000073
:0401EC0080E0089512
:0401F00080E008950E
:0401F40080E008950A
:0401F80080E0089506
:02000004008278
:090000000000020000C00700002E
:00000001FF
